{"abi":[{"type":"constructor","inputs":[],"stateMutability":"nonpayable"},{"type":"function","name":"getFeeV2","inputs":[],"outputs":[{"name":"","type":"uint128","internalType":"uint128"}],"stateMutability":"pure"},{"type":"function","name":"requestV2","inputs":[{"name":"randomNumber","type":"uint32","internalType":"uint32"}],"outputs":[{"name":"assignedSequenceNumber","type":"uint64","internalType":"uint64"}],"stateMutability":"payable"},{"type":"function","name":"requestV2","inputs":[],"outputs":[{"name":"assignedSequenceNumber","type":"uint64","internalType":"uint64"}],"stateMutability":"payable"}],"bytecode":{"object":"0x6080806040523460135760e3908160188239f35b5f80fdfe60808060405260043610156011575f80fd5b5f3560e01c9081630bed189f14608a575080637b43155d14605b57638204b67a146039575f80fd5b346057575f3660031901126057576020604051655af3107a40008152f35b5f80fd5b5f36600319011260575742600116608357602060015b67ffffffffffffffff60405191168152f35b60205f6071565b60203660031901126057576004359063ffffffff82168092036057576020918152f3fea264697066735822122051c048387df0a8fd7d462b3a8a67a9206b809090e44b2e67ace69335a5fc6bcd64736f6c634300081c0033","linkReferences":{}},"methodIdentifiers":{"getFeeV2()":"8204b67a","requestV2()":"7b43155d","requestV2(uint32)":"0bed189f"},"id":33}