{"abi":[{"type":"constructor","inputs":[{"name":"_owner","type":"address","internalType":"address"},{"name":"_entropy","type":"address","internalType":"address"}],"stateMutability":"nonpayable"},{"type":"receive","stateMutability":"payable"},{"type":"function","name":"_entropyCallback","inputs":[{"name":"sequence","type":"uint64","internalType":"uint64"},{"name":"provider","type":"address","internalType":"address"},{"name":"randomNumber","type":"bytes32","internalType":"bytes32"}],"outputs":[],"stateMutability":"nonpayable"},{"type":"function","name":"checkUpkeep","inputs":[],"outputs":[],"stateMutability":"nonpayable"},{"type":"function","name":"claimWinnings","inputs":[{"name":"_roundId","type":"uint256","internalType":"uint256"}],"outputs":[],"stateMutability":"nonpayable"},{"type":"function","name":"getCrashMultiplier","inputs":[],"outputs":[{"name":"","type":"uint256","internalType":"uint256"}],"stateMutability":"view"},{"type":"function","name":"getCurrentRoundCrashTime","inputs":[],"outputs":[{"name":"","type":"uint256","internalType":"uint256"}],"stateMutability":"view"},{"type":"function","name":"getCurrentRoundStartTime","inputs":[],"outputs":[{"name":"","type":"uint256","internalType":"uint256"}],"stateMutability":"view"},{"type":"function","name":"getCurrentRoundState","inputs":[],"outputs":[{"name":"","type":"uint8","internalType":"enum CrashGame.RoundState"}],"stateMutability":"view"},{"type":"function","name":"getCurrentUserBet","inputs":[{"name":"_user","type":"address","internalType":"address"}],"outputs":[{"name":"","type":"tuple","internalType":"struct CrashGame.Bet","components":[{"name":"roundId","type":"uint256","internalType":"uint256"},{"name":"amount","type":"uint256","internalType":"uint256"},{"name":"targetMultiplier","type":"uint256","internalType":"uint256"},{"name":"autoCashout","type":"uint256","internalType":"uint256"},{"name":"claimed","type":"bool","internalType":"bool"}]}],"stateMutability":"view"},{"type":"function","name":"getLastRoundResult","inputs":[],"outputs":[{"name":"","type":"tuple","internalType":"struct CrashGame.Round","components":[{"name":"id","type":"uint256","internalType":"uint256"},{"name":"startTime","type":"uint256","internalType":"uint256"},{"name":"crashMultiplier","type":"uint256","internalType":"uint256"},{"name":"crashTime","type":"uint256","internalType":"uint256"},{"name":"lockTime","type":"uint256","internalType":"uint256"},{"name":"state","type":"uint8","internalType":"enum CrashGame.RoundState"}]}],"stateMutability":"view"},{"type":"function","name":"placeBet","inputs":[{"name":"amount","type":"uint256","internalType":"uint256"},{"name":"targetMultiplier","type":"uint256","internalType":"uint256"},{"name":"autoCashout","type":"uint256","internalType":"uint256"}],"outputs":[],"stateMutability":"payable"},{"type":"function","name":"s_betCount","inputs":[{"name":"roundId","type":"uint256","internalType":"uint256"}],"outputs":[{"name":"betCount","type":"uint256","internalType":"uint256"}],"stateMutability":"view"},{"type":"function","name":"s_betDuration","inputs":[],"outputs":[{"name":"","type":"uint256","internalType":"uint256"}],"stateMutability":"view"},{"type":"function","name":"s_bets","inputs":[{"name":"roundId","type":"uint256","internalType":"uint256"},{"name":"player","type":"address","internalType":"address"}],"outputs":[{"name":"roundId","type":"uint256","internalType":"uint256"},{"name":"amount","type":"uint256","internalType":"uint256"},{"name":"targetMultiplier","type":"uint256","internalType":"uint256"},{"name":"autoCashout","type":"uint256","internalType":"uint256"},{"name":"claimed","type":"bool","internalType":"bool"}],"stateMutability":"view"},{"type":"function","name":"s_cooldown","inputs":[],"outputs":[{"name":"","type":"uint256","internalType":"uint256"}],"stateMutability":"view"},{"type":"function","name":"s_currentRoundId","inputs":[],"outputs":[{"name":"","type":"uint256","internalType":"uint256"}],"stateMutability":"view"},{"type":"function","name":"s_feeBasisPoints","inputs":[],"outputs":[{"name":"","type":"uint256","internalType":"uint256"}],"stateMutability":"view"},{"type":"function","name":"s_feesCollected","inputs":[],"outputs":[{"name":"","type":"uint256","internalType":"uint256"}],"stateMutability":"view"},{"type":"function","name":"s_rounds","inputs":[{"name":"","type":"uint256","internalType":"uint256"}],"outputs":[{"name":"id","type":"uint256","internalType":"uint256"},{"name":"startTime","type":"uint256","internalType":"uint256"},{"name":"crashMultiplier","type":"uint256","internalType":"uint256"},{"name":"crashTime","type":"uint256","internalType":"uint256"},{"name":"lockTime","type":"uint256","internalType":"uint256"},{"name":"state","type":"uint8","internalType":"enum CrashGame.RoundState"}],"stateMutability":"view"},{"type":"function","name":"setOrUpdateUpkeepAddress","inputs":[{"name":"_upkeep","type":"address","internalType":"address"}],"outputs":[],"stateMutability":"nonpayable"},{"type":"function","name":"updateTimings","inputs":[{"name":"_betDuration","type":"uint256","internalType":"uint256"},{"name":"_cooldown","type":"uint256","internalType":"uint256"}],"outputs":[],"stateMutability":"nonpayable"},{"type":"function","name":"withdraw","inputs":[],"outputs":[],"stateMutability":"nonpayable"},{"type":"function","name":"withdrawFees","inputs":[],"outputs":[],"stateMutability":"nonpayable"},{"type":"event","name":"BetPlaced","inputs":[{"name":"roundId","type":"uint256","indexed":false,"internalType":"uint256"},{"name":"player","type":"address","indexed":false,"internalType":"address"},{"name":"amount","type":"uint256","indexed":false,"internalType":"uint256"},{"name":"targetMultiplier","type":"uint256","indexed":false,"internalType":"uint256"},{"name":"autoCashout","type":"uint256","indexed":false,"internalType":"uint256"}],"anonymous":false},{"type":"event","name":"FlipRequested","inputs":[{"name":"sequenceNumber","type":"uint64","indexed":false,"internalType":"uint64"}],"anonymous":false},{"type":"event","name":"FlipResult","inputs":[{"name":"sequenceNumber","type":"uint64","indexed":false,"internalType":"uint64"},{"name":"isHeads","type":"bool","indexed":false,"internalType":"bool"}],"anonymous":false},{"type":"event","name":"FundsReceived","inputs":[{"name":"sender","type":"address","indexed":false,"internalType":"address"},{"name":"funds","type":"uint256","indexed":false,"internalType":"uint256"}],"anonymous":false},{"type":"event","name":"RoundCrashed","inputs":[{"name":"roundId","type":"uint256","indexed":true,"internalType":"uint256"},{"name":"crashTimeStamp","type":"uint256","indexed":false,"internalType":"uint256"},{"name":"crashMultiplier","type":"uint256","indexed":false,"internalType":"uint256"}],"anonymous":false},{"type":"event","name":"RoundLocked","inputs":[{"name":"roundId","type":"uint256","indexed":true,"internalType":"uint256"},{"name":"lockTime","type":"uint256","indexed":false,"internalType":"uint256"}],"anonymous":false},{"type":"event","name":"RoundStarted","inputs":[{"name":"roundId","type":"uint256","indexed":false,"internalType":"uint256"},{"name":"startTime","type":"uint256","indexed":false,"internalType":"uint256"}],"anonymous":false},{"type":"event","name":"UpkeepUpdated","inputs":[{"name":"oldUpkeep","type":"address","indexed":false,"internalType":"address"},{"name":"newUpkeep","type":"address","indexed":false,"internalType":"address"}],"anonymous":false},{"type":"event","name":"WinningsClaimed","inputs":[{"name":"user","type":"address","indexed":true,"internalType":"address"},{"name":"roundId","type":"uint256","indexed":true,"internalType":"uint256"},{"name":"payoutAmount","type":"uint256","indexed":false,"internalType":"uint256"}],"anonymous":false},{"type":"error","name":"ReentrancyGuardReentrantCall","inputs":[]}],"bytecode":{"object":"0x60a0346100d657601f61171f38819003918201601f19168301916001600160401b038311848410176100da5780849260409485528339810103126100d657610052602061004b836100ee565b92016100ee565b60017f9b779b17422d0df92223018b32b4d1fa46e071723d6817e2486d003becc55f0055603c600455601e60055560c86006556080919091525f80546001600160a01b0319166001600160a01b0390921691909117905560405161161c90816101038239608051818181610d8801528181611214015281816112a201526113340152f35b5f80fd5b634e487b7160e01b5f52604160045260245ffd5b51906001600160a01b03821682036100d65756fe60806040526004361015610049575b3615610018575f80fd5b7f8e47b87b0ef542cdfa1659c551d88bad38aa7f452d2bbb349ab7530dfec8be8f60408051338152346020820152a1005b5f3560e01c806324505f021461131d57806338a50817146112e35780633ccfd60b1461128c5780634737df481461126f578063476343ee146111fe5780634b146a6a146111e15780634d2081b91461109557806352a5f1f814610ec457806356835ba514610de35780635878372514610d46578063677bd9ff14610ae25780636c791bbd14610ac55780637479aa0414610a9b57806376a5af1914610a7e578063794bc3ee14610a61578063a13abdad14610621578063ae6e40c3146105ef578063b6e871fa146105c5578063d0eca69d14610599578063d8b34c9a14610524578063e4b92d3a146104b85763e71c96970361000e5760603660031901126104b45760243560443560043561015c611513565b8034106104795760025491825f52600760205260ff600560405f2001541660038110156104655761018d90156114c8565b5f8381526008602090815260408083203384529091529020600101546104155781156103c657606484106103705781811115610316575f8381526008602090815260408083203384529091529020600101546102c7577fab2115bac1de808eb7fe2be0309085b11f1f42b1eb980de8352efefdbfc098e29360a09360046040516102168161144e565b8281526020810186815260408201858152606083019187835260808401955f87525f52600860205260405f206001808c1b0333165f5260205260405f2093518455516001840155516002830155516003820155019051151560ff801983541691161790556002545f52600960205260405f206102928154611505565b905560025492604051938452336020850152604084015260608301526080820152a160015f5160206115c75f395f51905f5255005b60405162461bcd60e51b815260206004820152602160248201527f42657420616c726561647920706c6163656420666f72207468697320726f756e6044820152601960fa1b6064820152608490fd5b60405162461bcd60e51b815260206004820152602c60248201527f4175746f20636173686f7574206d75737420626520677265617465722074686160448201526b1b8818995d08185b5bdd5b9d60a21b6064820152608490fd5b60405162461bcd60e51b815260206004820152602860248201527f546172676574206d756c7469706c696572206d757374206265206174206c65616044820152670e6e840625c6060f60c31b6064820152608490fd5b60405162461bcd60e51b815260206004820152602160248201527f42657420616d6f756e74206d7573742062652067726561746572207468616e206044820152600360fc1b6064820152608490fd5b60405162461bcd60e51b815260206004820152602260248201527f616c726561647920706c61636564206120626574206f6e207468697320726f756044820152611b9960f21b6064820152608490fd5b634e487b7160e01b5f52602160045260245ffd5b60405162461bcd60e51b8152602060048201526013602482015272139bdd08195b9bdd59da08115512081cd95b9d606a1b6044820152606490fd5b5f80fd5b346104b45760203660031901126104b4576004355f52600760205260c060405f20610522815491600181015490600281015460038201549060ff600560048501549401541693604051968752602087015260408601526060850152608084015260a0830190611370565bf35b346104b45760403660031901126104b45761053d611393565b6004355f52600860205260405f209060018060a01b03165f5260205260a060405f20805490600181015490600281015460ff60046003840154930154169260405194855260208501526040840152606083015215156080820152f35b346104b4575f3660031901126104b4576002545f5260076020526020600260405f200154604051908152f35b346104b45760203660031901126104b4576004355f526009602052602060405f2054604051908152f35b346104b4575f3660031901126104b45760206106196002545f526007602052600360405f20015490565b604051908152f35b346104b4575f3660031901126104b4576001546001600160a01b03163303610a065761065e6002545f52600760205260ff600560405f2001541690565b6106766002545f526007602052600160405f20015490565b9061068f6002545f526007602052600360405f20015490565b60025492835f52600960205260405f2054600384101561046557831591826109ed575b50816109e3575b501561087857505050600254805f52600760205260ff600560405f200154166003811015610465576106eb90156114c8565b5f526007602052600560405f2001600160ff198254161790556002545f52600760205242600460405f2001556002547f1baa8618187c16370c93561b721a291ed3182b22390099d67e81167f97fbdd3a6020604051428152a25f546040516341025b3d60e11b81526001600160a01b0390911690602081600481855afa908115610824575f9161082f575b506001600160801b0360046020926040519485938492637b43155d60e01b845216905af1908115610824575f916107e0575b5060207ffa799b9e877ad8ba8cfe8ce336553b81d71baa1d2a9a1b1cfbddf3e27a9f71f69167ffffffffffffffff60405191168152a1005b90506020813d60201161081c575b816107fb60209383611486565b810103126104b4575167ffffffffffffffff811681036104b45760206107a8565b3d91506107ee565b6040513d5f823e3d90fd5b90506020813d602011610870575b8161084a60209383611486565b810103126104b457516001600160801b03811681036104b4576001600160801b03610776565b3d915061083d565b82158091811593846109b9575b505061088d57005b90610994575b1561094f576108a190611505565b8060025560056040516108b38161146a565b82815260208101428152604082015f815260608301905f825260808401925f845260a08501965f88525f52600760205260405f209451855551600185015551600284015551600383015551600482015501905160038110156104655760ff801983541691161790557f278844837bcf8364a705384bf3a2812901f54155bae86dea81dd52aa5b9ec0e360406002548151908152426020820152a1005b60405162461bcd60e51b815260206004820152601b60248201527f50726576696f757320726f756e64206e6f74207265736f6c76656400000000006044820152606490fd5b50805f52600760205260ff600560405f20015416600381101561046557600214610893565b6002149150816109cc575b508480610885565b6109da9150600554906114bb565b421015846109c4565b90501515846106b9565b6109fc919250600454906114bb565b42101590856106b2565b60405162461bcd60e51b815260206004820152602d60248201527f4f6e6c7920616e2075706b65657020697320616c6c6f77656420746f2063616c60448201526c1b081d1a1a5cc81b595d1a1bd9609a1b6064820152608490fd5b346104b4575f3660031901126104b4576020600554604051908152f35b346104b4575f3660031901126104b4576020600254604051908152f35b346104b4575f3660031901126104b45760206106196002545f526007602052600160405f20015490565b346104b4575f3660031901126104b4576020600354604051908152f35b346104b45760203660031901126104b457600435610afe611513565b805f52600760205260ff600560405f20015416600381101561046557600203610cf757805f52600860205260405f2060018060a01b0333165f52602052600260405f200154815f526007602052600260405f2001541115610cc2575f81815260086020908152604080832033845290915290206001810154600290910154610b8b916064909104906114a8565b612710610b9a600654836114a8565b04610ba7816003546114bb565b6003558103818111610cae575f8381526008602090815260408083203380855292528220600401805460ff1916600117905590918291829182915af13d15610ca9573d67ffffffffffffffff8111610c955760405190610c11601f8201601f191660200183611486565b81525f60203d92013e5b15610c5f576040519081527f7472e24de4628e34b41a2aa1688ed4b46a9145b2de1cf93d74902473ccc1740d60203392a360015f5160206115c75f395f51905f5255005b60405162461bcd60e51b815260206004820152600e60248201526d5061796f7574206661696c65642160901b6044820152606490fd5b634e487b7160e01b5f52604160045260245ffd5b610c1b565b634e487b7160e01b5f52601160045260245ffd5b60405162461bcd60e51b815260206004820152600d60248201526c4e6f7420636c61696d61626c6560981b6044820152606490fd5b60405162461bcd60e51b815260206004820152602160248201527f43757272656e7420526f756e64206973206e6f74207265736f6c7665642079656044820152601d60fa1b6064820152608490fd5b346104b45760203660031901126104b4577f33dee9eeb309e2ae2bf3b98b02c20c029347f840d48b1758dcbb40c66fbb33ca6040610d8261137d565b610db6337f00000000000000000000000000000000000000000000000000000000000000006001600160a01b0316146113a9565b600180546001600160a01b039283166001600160a01b0319821681179092558351921682526020820152a1005b346104b4575f3660031901126104b4575f60a0604051610e028161146a565b82815282602082015282604082015282606082015282608082015201526002545f198101908111610cae575f52600760205260405f20604051610e448161146a565b81548152600182015491602082019283526002810154604083019081526003820154916060840192835260ff6005600483015492608087019384520154169260a085019260038510156104655760c096610522958552604051965187525160208701525160408601525160608501525160808401525160a0830190611370565b346104b45760603660031901126104b45760043567ffffffffffffffff8116036104b457610ef0611393565b505f546001600160a01b03168015611050573303610fff57600254805f52600760205260ff600560405f20015416600381101561046557600103610fae57610f3960443561154b565b905f52600760205280600260405f2001556002545f52600760205242600360405f2001556002545f526007602052600560405f2001600260ff198254161790557f6bacf275ea881f208dd7f7d17331ee0b27f8f9775aefdc0166426108594efdb76040600254928151904282526020820152a2005b60405162461bcd60e51b8152602060048201526024808201527f526f756e64206e6f74206c6f636b6564206f7220616c7265616479207265736f6044820152631b1d995960e21b6064820152608490fd5b60405162461bcd60e51b815260206004820152602360248201527f4f6e6c7920456e74726f70792063616e2063616c6c20746869732066756e637460448201526234b7b760e91b6064820152608490fd5b60405162461bcd60e51b815260206004820152601760248201527f456e74726f70792061646472657373206e6f74207365740000000000000000006044820152606490fd5b346104b45760203660031901126104b4576110ae61137d565b5f60806040516110bd8161144e565b8281528260208201528260408201528260608201520152600254805f52600860205260405f2060018060a01b0383165f52602052600160405f20015415611187575f52600860205260405f209060018060a01b03165f5260205260a060405f206040516111298161144e565b81549182825260018101546020830190815260028201549060408401918252608060ff600460038601549560608801968752015416940193151584526040519485525160208501525160408401525160608301525115156080820152f35b60405162461bcd60e51b815260206004820152602c60248201527f54686973207573657220686173206e6f7420706c61636564206120626574206f60448201526b1b881d1a1a5cc81c9bdd5b9960a21b6064820152608490fd5b346104b4575f3660031901126104b4576020600654604051908152f35b346104b4575f3660031901126104b4575f8080807f00000000000000000000000000000000000000000000000000000000000000006001600160a01b03166112473382146113a9565b600354908115611257811561140b565b8390611266575bf11561082457005b506108fc61125e565b346104b4575f3660031901126104b4576020600454604051908152f35b346104b4575f3660031901126104b4575f8080807f00000000000000000000000000000000000000000000000000000000000000006001600160a01b03166112d53382146113a9565b47908115611257811561140b565b346104b4575f3660031901126104b45760206113106002545f52600760205260ff600560405f2001541690565b6105226040518092611370565b346104b45760403660031901126104b457611362337f00000000000000000000000000000000000000000000000000000000000000006001600160a01b0316146113a9565b600480359055602435600555005b9060038210156104655752565b600435906001600160a01b03821682036104b457565b602435906001600160a01b03821682036104b457565b156113b057565b60405162461bcd60e51b815260206004820152602d60248201527f4f6e6c7920746865206f776e657220697320616c6c6f77656420746f2063616c60448201526c1b081d1a1a5cc81b595d1a1bd9609a1b6064820152608490fd5b1561141257565b60405162461bcd60e51b81526020600482015260146024820152734e6f2066756e647320746f20776974686472617760601b6044820152606490fd5b60a0810190811067ffffffffffffffff821117610c9557604052565b60c0810190811067ffffffffffffffff821117610c9557604052565b90601f8019910116810190811067ffffffffffffffff821117610c9557604052565b81810292918115918404141715610cae57565b91908201809211610cae57565b156114cf57565b60405162461bcd60e51b815260206004820152600e60248201526d2937bab732103737ba1037b832b760911b6044820152606490fd5b5f198114610cae5760010190565b60025f5160206115c75f395f51905f52541461153c5760025f5160206115c75f395f51905f5255565b633ee5aeb560e01b5f5260045ffd5b60218106156115c057660fffffffffffff1680601960361b0390601960361b8211610cae5780600160341b0390600160341b8211610cae576064830292830460641481601960361b141715610cae57600160341b146115ac57606491040490565b634e487b7160e01b5f52601260045260245ffd5b5060649056fe9b779b17422d0df92223018b32b4d1fa46e071723d6817e2486d003becc55f00a2646970667358221220696815895b952c7e9140943b7c9cabbba0013bddfa5c262162a98f884859f14f64736f6c634300081c0033","linkReferences":{}},"methodIdentifiers":{"_entropyCallback(uint64,address,bytes32)":"52a5f1f8","checkUpkeep()":"a13abdad","claimWinnings(uint256)":"677bd9ff","getCrashMultiplier()":"d0eca69d","getCurrentRoundCrashTime()":"ae6e40c3","getCurrentRoundStartTime()":"7479aa04","getCurrentRoundState()":"38a50817","getCurrentUserBet(address)":"4d2081b9","getLastRoundResult()":"56835ba5","placeBet(uint256,uint256,uint256)":"e71c9697","s_betCount(uint256)":"b6e871fa","s_betDuration()":"4737df48","s_bets(uint256,address)":"d8b34c9a","s_cooldown()":"794bc3ee","s_currentRoundId()":"76a5af19","s_feeBasisPoints()":"4b146a6a","s_feesCollected()":"6c791bbd","s_rounds(uint256)":"e4b92d3a","setOrUpdateUpkeepAddress(address)":"58783725","updateTimings(uint256,uint256)":"24505f02","withdraw()":"3ccfd60b","withdrawFees()":"476343ee"},"id":25}