{"abi":[{"type":"constructor","inputs":[{"name":"_owner","type":"address","internalType":"address"},{"name":"_entropy","type":"address","internalType":"address"}],"stateMutability":"nonpayable"},{"type":"function","name":"_entropyCallback","inputs":[{"name":"sequence","type":"uint64","internalType":"uint64"},{"name":"provider","type":"address","internalType":"address"},{"name":"randomNumber","type":"bytes32","internalType":"bytes32"}],"outputs":[],"stateMutability":"nonpayable"},{"type":"function","name":"claimWinnings","inputs":[],"outputs":[],"stateMutability":"nonpayable"},{"type":"function","name":"getCrashMultiplier","inputs":[],"outputs":[{"name":"","type":"uint256","internalType":"uint256"}],"stateMutability":"view"},{"type":"function","name":"getCurrentRoundState","inputs":[],"outputs":[{"name":"","type":"uint8","internalType":"enum CrashGame.RoundState"}],"stateMutability":"view"},{"type":"function","name":"lockRoundAndCallPyth","inputs":[],"outputs":[],"stateMutability":"nonpayable"},{"type":"function","name":"placeBet","inputs":[{"name":"amount","type":"uint256","internalType":"uint256"},{"name":"targetMultiplier","type":"uint256","internalType":"uint256"},{"name":"autoCashout","type":"uint256","internalType":"uint256"}],"outputs":[],"stateMutability":"payable"},{"type":"function","name":"s_bets","inputs":[{"name":"roundId","type":"uint256","internalType":"uint256"},{"name":"player","type":"address","internalType":"address"}],"outputs":[{"name":"roundId","type":"uint256","internalType":"uint256"},{"name":"amount","type":"uint256","internalType":"uint256"},{"name":"targetMultiplier","type":"uint256","internalType":"uint256"},{"name":"autoCashout","type":"uint256","internalType":"uint256"},{"name":"claimed","type":"bool","internalType":"bool"}],"stateMutability":"view"},{"type":"function","name":"s_currentRoundId","inputs":[],"outputs":[{"name":"","type":"uint256","internalType":"uint256"}],"stateMutability":"view"},{"type":"function","name":"s_lockRoundUpkeep","inputs":[],"outputs":[{"name":"","type":"address","internalType":"address"}],"stateMutability":"view"},{"type":"function","name":"s_rounds","inputs":[{"name":"","type":"uint256","internalType":"uint256"}],"outputs":[{"name":"id","type":"uint256","internalType":"uint256"},{"name":"startTime","type":"uint256","internalType":"uint256"},{"name":"crashMultiplier","type":"uint256","internalType":"uint256"},{"name":"state","type":"uint8","internalType":"enum CrashGame.RoundState"}],"stateMutability":"view"},{"type":"function","name":"s_startRoundUpKeep","inputs":[],"outputs":[{"name":"","type":"address","internalType":"address"}],"stateMutability":"view"},{"type":"function","name":"setOrUpdateLockUpkeepAddress","inputs":[{"name":"_newUpKeep","type":"address","internalType":"address"}],"outputs":[],"stateMutability":"nonpayable"},{"type":"function","name":"setOrUpdateStartUpkeepAddress","inputs":[{"name":"_newUpKeep","type":"address","internalType":"address"}],"outputs":[],"stateMutability":"nonpayable"},{"type":"function","name":"startRound","inputs":[],"outputs":[],"stateMutability":"nonpayable"},{"type":"event","name":"BetPlaced","inputs":[{"name":"roundId","type":"uint256","indexed":false,"internalType":"uint256"},{"name":"player","type":"address","indexed":false,"internalType":"address"},{"name":"amount","type":"uint256","indexed":false,"internalType":"uint256"},{"name":"targetMultiplier","type":"uint256","indexed":false,"internalType":"uint256"},{"name":"autoCashout","type":"uint256","indexed":false,"internalType":"uint256"}],"anonymous":false},{"type":"event","name":"FlipRequested","inputs":[{"name":"sequenceNumber","type":"uint64","indexed":false,"internalType":"uint64"}],"anonymous":false},{"type":"event","name":"FlipResult","inputs":[{"name":"sequenceNumber","type":"uint64","indexed":false,"internalType":"uint64"},{"name":"isHeads","type":"bool","indexed":false,"internalType":"bool"}],"anonymous":false},{"type":"event","name":"RoundCrashed","inputs":[{"name":"crashTimeStamp","type":"uint256","indexed":false,"internalType":"uint256"},{"name":"crashMultiplier","type":"uint256","indexed":false,"internalType":"uint256"}],"anonymous":false},{"type":"event","name":"RoundLocked","inputs":[{"name":"roundId","type":"uint256","indexed":false,"internalType":"uint256"},{"name":"lockTime","type":"uint256","indexed":false,"internalType":"uint256"}],"anonymous":false},{"type":"event","name":"RoundStarted","inputs":[{"name":"roundId","type":"uint256","indexed":false,"internalType":"uint256"},{"name":"startTime","type":"uint256","indexed":false,"internalType":"uint256"}],"anonymous":false},{"type":"event","name":"UpkeepUpdated","inputs":[{"name":"oldUpkeep","type":"address","indexed":false,"internalType":"address"},{"name":"newUpkeep","type":"address","indexed":false,"internalType":"address"}],"anonymous":false},{"type":"event","name":"WinningsClaimed","inputs":[{"name":"user","type":"address","indexed":true,"internalType":"address"},{"name":"roundId","type":"uint256","indexed":true,"internalType":"uint256"},{"name":"payoutAmount","type":"uint256","indexed":false,"internalType":"uint256"}],"anonymous":false},{"type":"error","name":"ReentrancyGuardReentrantCall","inputs":[]}],"bytecode":{"object":"0x60a0346100b957601f61113f38819003918201601f19168301916001600160401b038311848410176100bd5780849260409485528339810103126100b957610052602061004b836100d1565b92016100d1565b60017f9b779b17422d0df92223018b32b4d1fa46e071723d6817e2486d003becc55f00556080919091525f80546001600160a01b0319166001600160a01b0390921691909117905560405161105990816100e68239608051818181610c900152610d6d0152f35b5f80fd5b634e487b7160e01b5f52604160045260245ffd5b51906001600160a01b03821682036100b95756fe60806040526004361015610011575f80fd5b5f3560e01c806302c61eea14610d2d57806338a5081714610cf95780634340767114610c5057806352a5f1f814610b0d57806355e3f0861461099f5780636233e6e0146107ed5780636b553340146107c557806376a5af19146107a8578063971aecec14610780578063b401faf114610554578063d0eca69d14610528578063d8b34c9a146104b3578063e4b92d3a1461045c5763e71c9697146100b3575f80fd5b6060366003190112610458576044356024356004356100d0610f50565b5f546040516341025b3d60e11b815290602090829060049082906001600160a01b03165afa801561044d576001600160801b03915f9161041e575b5016810180821161040a5734106103cf5760035492835f52600460205260ff600360405f2001541660038110156103bb576101469015610ef4565b811561036c576064831061031657818111156102bc575f84815260056020908152604080832033845290915290206001015461026d576040519260a084019484861067ffffffffffffffff87111761025957600460a0957fab2115bac1de808eb7fe2be0309085b11f1f42b1eb980de8352efefdbfc098e2976040528281526020810186815260408201858152606083019187835260808401955f87525f52600560205260405f206001808c1b0333165f5260205260405f2093518455516001840155516002830155516003820155019051151560ff8019835416911617905560035492604051938452336020850152604084015260608301526080820152a160015f5160206110045f395f51905f5255005b634e487b7160e01b5f52604160045260245ffd5b60405162461bcd60e51b815260206004820152602160248201527f42657420616c726561647920706c6163656420666f72207468697320726f756e6044820152601960fa1b6064820152608490fd5b60405162461bcd60e51b815260206004820152602c60248201527f4175746f20636173686f7574206d75737420626520677265617465722074686160448201526b1b8818995d08185b5bdd5b9d60a21b6064820152608490fd5b60405162461bcd60e51b815260206004820152602860248201527f546172676574206d756c7469706c696572206d757374206265206174206c65616044820152670e6e840625c6060f60c31b6064820152608490fd5b60405162461bcd60e51b815260206004820152602160248201527f42657420616d6f756e74206d7573742062652067726561746572207468616e206044820152600360fc1b6064820152608490fd5b634e487b7160e01b5f52602160045260245ffd5b60405162461bcd60e51b8152602060048201526013602482015272139bdd08195b9bdd59da08115512081cd95b9d606a1b6044820152606490fd5b634e487b7160e01b5f52601160045260245ffd5b610440915060203d602011610446575b6104388183610ed2565b810190610f31565b5f61010b565b503d61042e565b6040513d5f823e3d90fd5b5f80fd5b34610458576020366003190112610458576004355f526004602052608060405f206104b181549160018101549060ff600360028301549201541691604051948552602085015260408401526060830190610e01565bf35b34610458576040366003190112610458576104cc610deb565b6004355f52600560205260405f209060018060a01b03165f5260205260a060405f20805490600181015490600281015460ff60046003840154930154169260405194855260208501526040840152606083015215156080820152f35b34610458575f366003190112610458576003545f5260046020526020600260405f200154604051908152f35b34610458575f3660031901126104585761056c610f50565b600354805f52600460205260ff600360405f2001541660038110156103bb5760020361073157805f52600560205260405f2060018060a01b0333165f52602052600260405f200154815f526004602052600260405f20015411156106fc57805f52600560205260405f2060018060a01b0333165f52602052600160405f20015490805f526004602052600260405f2001549182810292818404149015171561040a575f52600560205260405f2060018060a01b0333165f52602052600460405f2001600160ff198254161790555f80808084335af13d156106f7573d67ffffffffffffffff8111610259576040519061066f601f8201601f191660200183610ed2565b81525f60203d92013e5b156106c157600354906040519081527f7472e24de4628e34b41a2aa1688ed4b46a9145b2de1cf93d74902473ccc1740d60203392a360015f5160206110045f395f51905f5255005b60405162461bcd60e51b815260206004820152600e60248201526d5061796f7574206661696c65642160901b6044820152606490fd5b610679565b60405162461bcd60e51b815260206004820152600d60248201526c4e6f7420636c61696d61626c6560981b6044820152606490fd5b60405162461bcd60e51b815260206004820152602160248201527f43757272656e7420526f756e64206973206e6f74207265736f6c7665642079656044820152601d60fa1b6064820152608490fd5b34610458575f366003190112610458576002546040516001600160a01b039091168152602090f35b34610458575f366003190112610458576020600354604051908152f35b34610458575f366003190112610458576001546040516001600160a01b039091168152602090f35b34610458575f366003190112610458576001546001600160a01b03163314801561098b575b61081b90610e70565b600354805f52600460205260ff600360405f2001541660038110156103bb576108449015610ef4565b5f526004602052600360405f2001600160ff198254161790557f1baa8618187c16370c93561b721a291ed3182b22390099d67e81167f97fbdd3a60406003548151908152426020820152a15f546040516341025b3d60e11b81526001600160a01b0390911690602081600481855afa801561044d5760046001600160801b03916020935f9161096e575b50604051637b43155d60e01b8152948593849216905af190811561044d575f9161092a575b7ffa799b9e877ad8ba8cfe8ce336553b81d71baa1d2a9a1b1cfbddf3e27a9f71f660208367ffffffffffffffff60405191168152a1005b90506020813d602011610966575b8161094560209383610ed2565b81010312610458575167ffffffffffffffff811681036104585760206108f3565b3d9150610938565b6109859150843d8611610446576104388183610ed2565b856108ce565b506002546001600160a01b03163314610812565b34610458575f366003190112610458576001546001600160a01b031633148015610af9575b6109cd90610e70565b60035480158015610ad4575b15610a8f575f19811461040a5760010180600355604051608081019080821067ffffffffffffffff831117610259576003916040528281526020810142815260408201905f825260608301945f86525f52600460205260405f209251835551600183015551600282015501905160038110156103bb5760ff801983541691161790557f278844837bcf8364a705384bf3a2812901f54155bae86dea81dd52aa5b9ec0e360406003548151908152426020820152a1005b60405162461bcd60e51b815260206004820152601b60248201527f50726576696f757320726f756e64206e6f74207265736f6c76656400000000006044820152606490fd5b50805f52600460205260ff600360405f2001541660038110156103bb576002146109d9565b506002546001600160a01b031633146109c4565b346104585760603660031901126104585760043567ffffffffffffffff81160361045857610b39610deb565b505f546001600160a01b03168015610c0b573303610bba577f017bc9826f67d5b3217054c65f34b7e836f44ea467e265312e948083ea1a34bf6040610b7f604435610f88565b6003545f526004602052806002835f2001556003545f5260046020526003825f2001600260ff198254161790558151904282526020820152a1005b60405162461bcd60e51b815260206004820152602360248201527f4f6e6c7920456e74726f70792063616e2063616c6c20746869732066756e637460448201526234b7b760e91b6064820152608490fd5b60405162461bcd60e51b815260206004820152601760248201527f456e74726f70792061646472657373206e6f74207365740000000000000000006044820152606490fd5b34610458576020366003190112610458577f33dee9eeb309e2ae2bf3b98b02c20c029347f840d48b1758dcbb40c66fbb33ca610c8a610dd5565b610cbe337f00000000000000000000000000000000000000000000000000000000000000006001600160a01b031614610e0e565b600280546001600160a01b039283166001600160a01b031982168117909255604080519390911683526020830191909152819081015b0390a1005b34610458575f366003190112610458576003545f526004602052602060ff600360405f200154166104b16040518092610e01565b34610458576020366003190112610458577f33dee9eeb309e2ae2bf3b98b02c20c029347f840d48b1758dcbb40c66fbb33ca610d67610dd5565b610d9b337f00000000000000000000000000000000000000000000000000000000000000006001600160a01b031614610e0e565b600180546001600160a01b039283166001600160a01b03198216811790925560408051939091168352602083019190915281908101610cf4565b600435906001600160a01b038216820361045857565b602435906001600160a01b038216820361045857565b9060038210156103bb5752565b15610e1557565b60405162461bcd60e51b815260206004820152602d60248201527f4f6e6c7920746865206f776e657220697320616c6c6f77656420746f2063616c60448201526c1b081d1a1a5cc81b595d1a1bd9609a1b6064820152608490fd5b15610e7757565b60405162461bcd60e51b815260206004820152602d60248201527f4f6e6c7920616e2075706b65657020697320616c6c6f77656420746f2063616c60448201526c1b081d1a1a5cc81b595d1a1bd9609a1b6064820152608490fd5b90601f8019910116810190811067ffffffffffffffff82111761025957604052565b15610efb57565b60405162461bcd60e51b815260206004820152600e60248201526d2937bab732103737ba1037b832b760911b6044820152606490fd5b9081602091031261045857516001600160801b03811681036104585790565b60025f5160206110045f395f51905f525414610f795760025f5160206110045f395f51905f5255565b633ee5aeb560e01b5f5260045ffd5b6021810615610ffd57660fffffffffffff1680601960361b0390601960361b821161040a5780600160341b0390600160341b821161040a576064830292830460641481601960361b14171561040a57600160341b14610fe957606491040490565b634e487b7160e01b5f52601260045260245ffd5b5060649056fe9b779b17422d0df92223018b32b4d1fa46e071723d6817e2486d003becc55f00a2646970667358221220ff8b609aba417b2d603fab5084694f5b16995d6b8cb3ba5bd39b1af509a9229764736f6c634300081c0033","linkReferences":{}},"methodIdentifiers":{"_entropyCallback(uint64,address,bytes32)":"52a5f1f8","claimWinnings()":"b401faf1","getCrashMultiplier()":"d0eca69d","getCurrentRoundState()":"38a50817","lockRoundAndCallPyth()":"6233e6e0","placeBet(uint256,uint256,uint256)":"e71c9697","s_bets(uint256,address)":"d8b34c9a","s_currentRoundId()":"76a5af19","s_lockRoundUpkeep()":"971aecec","s_rounds(uint256)":"e4b92d3a","s_startRoundUpKeep()":"6b553340","setOrUpdateLockUpkeepAddress(address)":"43407671","setOrUpdateStartUpkeepAddress(address)":"02c61eea","startRound()":"55e3f086"},"id":30}