{"abi":[{"type":"constructor","inputs":[{"name":"_owner","type":"address","internalType":"address"},{"name":"_entropy","type":"address","internalType":"address"}],"stateMutability":"nonpayable"},{"type":"function","name":"_entropyCallback","inputs":[{"name":"sequence","type":"uint64","internalType":"uint64"},{"name":"provider","type":"address","internalType":"address"},{"name":"randomNumber","type":"bytes32","internalType":"bytes32"}],"outputs":[],"stateMutability":"nonpayable"},{"type":"function","name":"calculateCrashResult","inputs":[],"outputs":[],"stateMutability":"nonpayable"},{"type":"function","name":"claimWinnings","inputs":[],"outputs":[],"stateMutability":"nonpayable"},{"type":"function","name":"lockRoundAndCallPyth","inputs":[],"outputs":[],"stateMutability":"nonpayable"},{"type":"function","name":"placeBet","inputs":[{"name":"amount","type":"uint256","internalType":"uint256"},{"name":"targetMultiplier","type":"uint256","internalType":"uint256"},{"name":"autoCashout","type":"uint256","internalType":"uint256"}],"outputs":[],"stateMutability":"payable"},{"type":"function","name":"s_bets","inputs":[{"name":"roundId","type":"uint256","internalType":"uint256"},{"name":"player","type":"address","internalType":"address"}],"outputs":[{"name":"roundId","type":"uint256","internalType":"uint256"},{"name":"amount","type":"uint256","internalType":"uint256"},{"name":"targetMultiplier","type":"uint256","internalType":"uint256"},{"name":"autoCashout","type":"uint256","internalType":"uint256"},{"name":"claimed","type":"bool","internalType":"bool"}],"stateMutability":"view"},{"type":"function","name":"s_currentRoundId","inputs":[],"outputs":[{"name":"","type":"uint256","internalType":"uint256"}],"stateMutability":"view"},{"type":"function","name":"s_rounds","inputs":[{"name":"","type":"uint256","internalType":"uint256"}],"outputs":[{"name":"id","type":"uint256","internalType":"uint256"},{"name":"startTime","type":"uint256","internalType":"uint256"},{"name":"crashMultiplier","type":"uint256","internalType":"uint256"},{"name":"state","type":"uint8","internalType":"enum CrashGame.RoundState"}],"stateMutability":"view"},{"type":"function","name":"s_upKeep","inputs":[],"outputs":[{"name":"","type":"address","internalType":"address"}],"stateMutability":"view"},{"type":"function","name":"setOrUpdateUpkeepAddress","inputs":[{"name":"_newUpKeep","type":"address","internalType":"address"}],"outputs":[],"stateMutability":"nonpayable"},{"type":"function","name":"startRound","inputs":[],"outputs":[],"stateMutability":"nonpayable"},{"type":"event","name":"BetPlaced","inputs":[{"name":"roundId","type":"uint256","indexed":false,"internalType":"uint256"},{"name":"player","type":"address","indexed":false,"internalType":"address"},{"name":"amount","type":"uint256","indexed":false,"internalType":"uint256"},{"name":"targetMultiplier","type":"uint256","indexed":false,"internalType":"uint256"},{"name":"autoCashout","type":"uint256","indexed":false,"internalType":"uint256"}],"anonymous":false},{"type":"event","name":"FlipRequested","inputs":[{"name":"sequenceNumber","type":"uint64","indexed":false,"internalType":"uint64"}],"anonymous":false},{"type":"event","name":"FlipResult","inputs":[{"name":"sequenceNumber","type":"uint64","indexed":false,"internalType":"uint64"},{"name":"isHeads","type":"bool","indexed":false,"internalType":"bool"}],"anonymous":false},{"type":"event","name":"RoundLocked","inputs":[{"name":"roundId","type":"uint256","indexed":false,"internalType":"uint256"},{"name":"lockTime","type":"uint256","indexed":false,"internalType":"uint256"}],"anonymous":false},{"type":"event","name":"RoundStarted","inputs":[{"name":"roundId","type":"uint256","indexed":false,"internalType":"uint256"},{"name":"startTime","type":"uint256","indexed":false,"internalType":"uint256"}],"anonymous":false},{"type":"event","name":"UpkeepUpdated","inputs":[{"name":"oldUpkeep","type":"address","indexed":false,"internalType":"address"},{"name":"newUpkeep","type":"address","indexed":false,"internalType":"address"}],"anonymous":false}],"bytecode":{"object":"0x60a034608757601f610c4a38819003918201601f19168301916001600160401b03831184841017608b578084926040948552833981010312608757604b6020604583609f565b9201609f565b6080919091525f80546001600160a01b0319166001600160a01b03909216919091179055604051610b9790816100b38239608051816107020152f35b5f80fd5b634e487b7160e01b5f52604160045260245ffd5b51906001600160a01b038216820360875756fe60806040526004361015610011575f80fd5b5f3560e01c80634c637ace14610a4357806352a5f1f81461092f57806355e3f086146107df57806358783725146106da5780636233e6e01461054557806376a5af19146105285780639b1b4eae14610500578063b401faf1146104ee578063d8b34c9a14610479578063e4b92d3a146104215763e71c969714610092575f80fd5b606036600319011261041d575f546040516341025b3d60e11b815260443591602435916004803592602091839182906001600160a01b03165afa8015610412576001600160801b03915f916103e3575b501681018082116103cf5734106103945760025492835f52600360205260ff600360405f2001541660038110156103805761011d9015610b05565b811561033157606483106102db5781811115610281575f848152600460209081526040808320338452909152902060010154610232576040519260a084019484861067ffffffffffffffff87111761021e57600460a0957fab2115bac1de808eb7fe2be0309085b11f1f42b1eb980de8352efefdbfc098e2976040528281526020810186815260408201858152606083019187835260808401955f87525f528460205260405f206001808c1b0333165f5260205260405f2093518455516001840155516002830155516003820155019051151560ff8019835416911617905560025492604051938452336020850152604084015260608301526080820152a1005b634e487b7160e01b5f52604160045260245ffd5b60405162461bcd60e51b815260206004820152602160248201527f42657420616c726561647920706c6163656420666f72207468697320726f756e6044820152601960fa1b6064820152608490fd5b60405162461bcd60e51b815260206004820152602c60248201527f4175746f20636173686f7574206d75737420626520677265617465722074686160448201526b1b8818995d08185b5bdd5b9d60a21b6064820152608490fd5b60405162461bcd60e51b815260206004820152602860248201527f546172676574206d756c7469706c696572206d757374206265206174206c65616044820152670e6e840625c6060f60c31b6064820152608490fd5b60405162461bcd60e51b815260206004820152602160248201527f42657420616d6f756e74206d7573742062652067726561746572207468616e206044820152600360fc1b6064820152608490fd5b634e487b7160e01b5f52602160045260245ffd5b60405162461bcd60e51b8152602060048201526013602482015272139bdd08195b9bdd59da08115512081cd95b9d606a1b6044820152606490fd5b634e487b7160e01b5f52601160045260245ffd5b610405915060203d60201161040b575b6103fd8183610ae3565b810190610b42565b5f6100e2565b503d6103f3565b6040513d5f823e3d90fd5b5f80fd5b3461041d57602036600319011261041d576004355f52600360205260405f20805460018201549160ff600360028301549201541692604051928352602083015260408201526003821015610380576080916060820152f35b3461041d57604036600319011261041d57610492610a6a565b6004355f52600460205260405f209060018060a01b03165f5260205260a060405f20805490600181015490600281015460ff60046003840154930154169260405194855260208501526040840152606083015215156080820152f35b3461041d575f36600319011261041d57005b3461041d575f36600319011261041d576001546040516001600160a01b039091168152602090f35b3461041d575f36600319011261041d576020600254604051908152f35b3461041d575f36600319011261041d5761056a60018060a01b03600154163314610a80565b600254805f52600360205260ff600360405f200154166003811015610380576105939015610b05565b5f526003602052600360405f2001600160ff198254161790557f1baa8618187c16370c93561b721a291ed3182b22390099d67e81167f97fbdd3a60406002548151908152426020820152a15f546040516341025b3d60e11b81526001600160a01b0390911690602081600481855afa80156104125760046001600160801b03916020935f916106bd575b50604051637b43155d60e01b8152948593849216905af1908115610412575f91610679575b7ffa799b9e877ad8ba8cfe8ce336553b81d71baa1d2a9a1b1cfbddf3e27a9f71f660208367ffffffffffffffff60405191168152a1005b90506020813d6020116106b5575b8161069460209383610ae3565b8101031261041d575167ffffffffffffffff8116810361041d576020610642565b3d9150610687565b6106d49150843d861161040b576103fd8183610ae3565b8561061d565b3461041d57602036600319011261041d576004356001600160a01b0381169081900361041d577f00000000000000000000000000000000000000000000000000000000000000006001600160a01b031633036107845760407f33dee9eeb309e2ae2bf3b98b02c20c029347f840d48b1758dcbb40c66fbb33ca9160015490806bffffffffffffffffffffffff60a01b83161760015582519160018060a01b031682526020820152a1005b60405162461bcd60e51b815260206004820152602d60248201527f4f6e6c7920746865206f776e657220697320616c6c6f77656420746f2063616c60448201526c1b081d1a1a5cc81b595d1a1bd9609a1b6064820152608490fd5b3461041d575f36600319011261041d5761080460018060a01b03600154163314610a80565b6002548015801561090a575b156108c5575f1981146103cf5760010180600255604051608081019080821067ffffffffffffffff83111761021e576003916040528281526020810142815260408201905f825260608301945f86525f528360205260405f209251835551600183015551600282015501905160038110156103805760ff801983541691161790557f278844837bcf8364a705384bf3a2812901f54155bae86dea81dd52aa5b9ec0e360406002548151908152426020820152a1005b60405162461bcd60e51b815260206004820152601b60248201527f50726576696f757320726f756e64206e6f74207265736f6c76656400000000006044820152606490fd5b50805f52600360205260ff600360405f20015416600381101561038057600214610810565b3461041d57606036600319011261041d5760043567ffffffffffffffff811680910361041d5761095d610a6a565b505f546001600160a01b031680156109fe5733036109ad5760407ff550f248b098f02e33438ac336e78317f12b3eb483ece487cde4331e4f6f4eba918151908152600160443516156020820152a1005b60405162461bcd60e51b815260206004820152602360248201527f4f6e6c7920456e74726f70792063616e2063616c6c20746869732066756e637460448201526234b7b760e91b6064820152608490fd5b60405162461bcd60e51b815260206004820152601760248201527f456e74726f70792061646472657373206e6f74207365740000000000000000006044820152606490fd5b3461041d575f36600319011261041d57610a6860018060a01b03600154163314610a80565b005b602435906001600160a01b038216820361041d57565b15610a8757565b60405162461bcd60e51b815260206004820152602e60248201527f4f6e6c79207468652075706b65657020697320616c6c6f77656420746f20636160448201526d1b1b081d1a1a5cc81b595d1a1bd960921b6064820152608490fd5b90601f8019910116810190811067ffffffffffffffff82111761021e57604052565b15610b0c57565b60405162461bcd60e51b815260206004820152600e60248201526d2937bab732103737ba1037b832b760911b6044820152606490fd5b9081602091031261041d57516001600160801b038116810361041d579056fea2646970667358221220b7ffe6607be2214b367e0abdc68db2b07eb9b17bf0689d547c853f133d78575e64736f6c634300081c0033","linkReferences":{}},"methodIdentifiers":{"_entropyCallback(uint64,address,bytes32)":"52a5f1f8","calculateCrashResult()":"4c637ace","claimWinnings()":"b401faf1","lockRoundAndCallPyth()":"6233e6e0","placeBet(uint256,uint256,uint256)":"e71c9697","s_bets(uint256,address)":"d8b34c9a","s_currentRoundId()":"76a5af19","s_rounds(uint256)":"e4b92d3a","s_upKeep()":"9b1b4eae","setOrUpdateUpkeepAddress(address)":"58783725","startRound()":"55e3f086"},"id":28}