{"abi":[{"type":"constructor","inputs":[{"name":"_owner","type":"address","internalType":"address"},{"name":"_entropy","type":"address","internalType":"address"}],"stateMutability":"nonpayable"},{"type":"receive","stateMutability":"payable"},{"type":"function","name":"_entropyCallback","inputs":[{"name":"sequence","type":"uint64","internalType":"uint64"},{"name":"provider","type":"address","internalType":"address"},{"name":"randomNumber","type":"bytes32","internalType":"bytes32"}],"outputs":[],"stateMutability":"nonpayable"},{"type":"function","name":"checkUpkeep","inputs":[],"outputs":[],"stateMutability":"nonpayable"},{"type":"function","name":"claimWinnings","inputs":[{"name":"_roundId","type":"uint256","internalType":"uint256"}],"outputs":[],"stateMutability":"nonpayable"},{"type":"function","name":"getCrashMultiplier","inputs":[],"outputs":[{"name":"","type":"uint256","internalType":"uint256"}],"stateMutability":"view"},{"type":"function","name":"getCurrentRoundCrashTime","inputs":[],"outputs":[{"name":"","type":"uint256","internalType":"uint256"}],"stateMutability":"view"},{"type":"function","name":"getCurrentRoundLockTime","inputs":[],"outputs":[{"name":"","type":"uint256","internalType":"uint256"}],"stateMutability":"view"},{"type":"function","name":"getCurrentRoundStartTime","inputs":[],"outputs":[{"name":"","type":"uint256","internalType":"uint256"}],"stateMutability":"view"},{"type":"function","name":"getCurrentRoundState","inputs":[],"outputs":[{"name":"","type":"uint8","internalType":"enum CrashGame.RoundState"}],"stateMutability":"view"},{"type":"function","name":"getCurrentUserBet","inputs":[{"name":"_user","type":"address","internalType":"address"}],"outputs":[{"name":"","type":"tuple","internalType":"struct CrashGame.Bet","components":[{"name":"roundId","type":"uint256","internalType":"uint256"},{"name":"amount","type":"uint256","internalType":"uint256"},{"name":"targetMultiplier","type":"uint256","internalType":"uint256"},{"name":"autoCashout","type":"uint256","internalType":"uint256"},{"name":"claimed","type":"bool","internalType":"bool"}]}],"stateMutability":"view"},{"type":"function","name":"getLastRoundResult","inputs":[],"outputs":[{"name":"","type":"tuple","internalType":"struct CrashGame.Round","components":[{"name":"id","type":"uint256","internalType":"uint256"},{"name":"startTime","type":"uint256","internalType":"uint256"},{"name":"crashMultiplier","type":"uint256","internalType":"uint256"},{"name":"crashTime","type":"uint256","internalType":"uint256"},{"name":"lockTime","type":"uint256","internalType":"uint256"},{"name":"state","type":"uint8","internalType":"enum CrashGame.RoundState"}]}],"stateMutability":"view"},{"type":"function","name":"placeBet","inputs":[{"name":"amount","type":"uint256","internalType":"uint256"},{"name":"targetMultiplier","type":"uint256","internalType":"uint256"},{"name":"autoCashout","type":"uint256","internalType":"uint256"}],"outputs":[],"stateMutability":"payable"},{"type":"function","name":"s_betCount","inputs":[{"name":"roundId","type":"uint256","internalType":"uint256"}],"outputs":[{"name":"betCount","type":"uint256","internalType":"uint256"}],"stateMutability":"view"},{"type":"function","name":"s_betDuration","inputs":[],"outputs":[{"name":"","type":"uint256","internalType":"uint256"}],"stateMutability":"view"},{"type":"function","name":"s_bets","inputs":[{"name":"roundId","type":"uint256","internalType":"uint256"},{"name":"player","type":"address","internalType":"address"}],"outputs":[{"name":"roundId","type":"uint256","internalType":"uint256"},{"name":"amount","type":"uint256","internalType":"uint256"},{"name":"targetMultiplier","type":"uint256","internalType":"uint256"},{"name":"autoCashout","type":"uint256","internalType":"uint256"},{"name":"claimed","type":"bool","internalType":"bool"}],"stateMutability":"view"},{"type":"function","name":"s_cooldown","inputs":[],"outputs":[{"name":"","type":"uint256","internalType":"uint256"}],"stateMutability":"view"},{"type":"function","name":"s_currentRoundId","inputs":[],"outputs":[{"name":"","type":"uint256","internalType":"uint256"}],"stateMutability":"view"},{"type":"function","name":"s_feeBasisPoints","inputs":[],"outputs":[{"name":"","type":"uint256","internalType":"uint256"}],"stateMutability":"view"},{"type":"function","name":"s_feesCollected","inputs":[],"outputs":[{"name":"","type":"uint256","internalType":"uint256"}],"stateMutability":"view"},{"type":"function","name":"s_rounds","inputs":[{"name":"","type":"uint256","internalType":"uint256"}],"outputs":[{"name":"id","type":"uint256","internalType":"uint256"},{"name":"startTime","type":"uint256","internalType":"uint256"},{"name":"crashMultiplier","type":"uint256","internalType":"uint256"},{"name":"crashTime","type":"uint256","internalType":"uint256"},{"name":"lockTime","type":"uint256","internalType":"uint256"},{"name":"state","type":"uint8","internalType":"enum CrashGame.RoundState"}],"stateMutability":"view"},{"type":"function","name":"setOrUpdateUpkeepAddress","inputs":[{"name":"_upkeep","type":"address","internalType":"address"}],"outputs":[],"stateMutability":"nonpayable"},{"type":"function","name":"updateTimings","inputs":[{"name":"_betDuration","type":"uint256","internalType":"uint256"},{"name":"_cooldown","type":"uint256","internalType":"uint256"}],"outputs":[],"stateMutability":"nonpayable"},{"type":"function","name":"withdraw","inputs":[],"outputs":[],"stateMutability":"nonpayable"},{"type":"function","name":"withdrawFees","inputs":[],"outputs":[],"stateMutability":"nonpayable"},{"type":"event","name":"BetPlaced","inputs":[{"name":"roundId","type":"uint256","indexed":false,"internalType":"uint256"},{"name":"player","type":"address","indexed":false,"internalType":"address"},{"name":"amount","type":"uint256","indexed":false,"internalType":"uint256"},{"name":"targetMultiplier","type":"uint256","indexed":false,"internalType":"uint256"},{"name":"autoCashout","type":"uint256","indexed":false,"internalType":"uint256"}],"anonymous":false},{"type":"event","name":"FlipRequested","inputs":[{"name":"sequenceNumber","type":"uint64","indexed":false,"internalType":"uint64"}],"anonymous":false},{"type":"event","name":"FlipResult","inputs":[{"name":"sequenceNumber","type":"uint64","indexed":false,"internalType":"uint64"},{"name":"isHeads","type":"bool","indexed":false,"internalType":"bool"}],"anonymous":false},{"type":"event","name":"FundsReceived","inputs":[{"name":"sender","type":"address","indexed":false,"internalType":"address"},{"name":"funds","type":"uint256","indexed":false,"internalType":"uint256"}],"anonymous":false},{"type":"event","name":"RoundCrashed","inputs":[{"name":"roundId","type":"uint256","indexed":true,"internalType":"uint256"},{"name":"crashTimeStamp","type":"uint256","indexed":false,"internalType":"uint256"},{"name":"crashMultiplier","type":"uint256","indexed":false,"internalType":"uint256"}],"anonymous":false},{"type":"event","name":"RoundLocked","inputs":[{"name":"roundId","type":"uint256","indexed":true,"internalType":"uint256"},{"name":"lockTime","type":"uint256","indexed":false,"internalType":"uint256"}],"anonymous":false},{"type":"event","name":"RoundStarted","inputs":[{"name":"roundId","type":"uint256","indexed":false,"internalType":"uint256"},{"name":"startTime","type":"uint256","indexed":false,"internalType":"uint256"}],"anonymous":false},{"type":"event","name":"UpkeepUpdated","inputs":[{"name":"oldUpkeep","type":"address","indexed":false,"internalType":"address"},{"name":"newUpkeep","type":"address","indexed":false,"internalType":"address"}],"anonymous":false},{"type":"event","name":"WinningsClaimed","inputs":[{"name":"user","type":"address","indexed":true,"internalType":"address"},{"name":"roundId","type":"uint256","indexed":true,"internalType":"uint256"},{"name":"payoutAmount","type":"uint256","indexed":false,"internalType":"uint256"}],"anonymous":false},{"type":"error","name":"ReentrancyGuardReentrantCall","inputs":[]}],"bytecode":{"object":"0x60a0346100d657601f61175638819003918201601f19168301916001600160401b038311848410176100da5780849260409485528339810103126100d657610052602061004b836100ee565b92016100ee565b60017f9b779b17422d0df92223018b32b4d1fa46e071723d6817e2486d003becc55f0055603c600455601e60055560c86006556080919091525f80546001600160a01b0319166001600160a01b0390921691909117905560405161165390816101038239608051818181610dbf0152818161124b015281816112d9015261136b0152f35b5f80fd5b634e487b7160e01b5f52604160045260245ffd5b51906001600160a01b03821682036100d65756fe60806040526004361015610049575b3615610018575f80fd5b7f8e47b87b0ef542cdfa1659c551d88bad38aa7f452d2bbb349ab7530dfec8be8f60408051338152346020820152a1005b5f3560e01c806324505f021461135457806338a508171461131a5780633ccfd60b146112c35780634737df48146112a6578063476343ee146112355780634b146a6a146112185780634d2081b9146110cc57806352a5f1f814610efb57806356835ba514610e1a5780635878372514610d7d5780635b31ed0414610d51578063677bd9ff14610aed5780636c791bbd14610ad05780637479aa0414610aa657806376a5af1914610a89578063794bc3ee14610a6c578063a13abdad1461062c578063ae6e40c3146105fa578063b6e871fa146105d0578063d0eca69d146105a4578063d8b34c9a1461052f578063e4b92d3a146104c35763e71c96970361000e5760603660031901126104bf5760243560443560043561016761154a565b8034106104845760025491825f52600760205260ff600560405f2001541660038110156104705761019890156114ff565b5f8381526008602090815260408083203384529091529020600101546104205781156103d1576064841061037b5781811115610321575f8381526008602090815260408083203384529091529020600101546102d2577fab2115bac1de808eb7fe2be0309085b11f1f42b1eb980de8352efefdbfc098e29360a093600460405161022181611485565b8281526020810186815260408201858152606083019187835260808401955f87525f52600860205260405f206001808c1b0333165f5260205260405f2093518455516001840155516002830155516003820155019051151560ff801983541691161790556002545f52600960205260405f2061029d815461153c565b905560025492604051938452336020850152604084015260608301526080820152a160015f5160206115fe5f395f51905f5255005b60405162461bcd60e51b815260206004820152602160248201527f42657420616c726561647920706c6163656420666f72207468697320726f756e6044820152601960fa1b6064820152608490fd5b60405162461bcd60e51b815260206004820152602c60248201527f4175746f20636173686f7574206d75737420626520677265617465722074686160448201526b1b8818995d08185b5bdd5b9d60a21b6064820152608490fd5b60405162461bcd60e51b815260206004820152602860248201527f546172676574206d756c7469706c696572206d757374206265206174206c65616044820152670e6e840625c6060f60c31b6064820152608490fd5b60405162461bcd60e51b815260206004820152602160248201527f42657420616d6f756e74206d7573742062652067726561746572207468616e206044820152600360fc1b6064820152608490fd5b60405162461bcd60e51b815260206004820152602260248201527f616c726561647920706c61636564206120626574206f6e207468697320726f756044820152611b9960f21b6064820152608490fd5b634e487b7160e01b5f52602160045260245ffd5b60405162461bcd60e51b8152602060048201526013602482015272139bdd08195b9bdd59da08115512081cd95b9d606a1b6044820152606490fd5b5f80fd5b346104bf5760203660031901126104bf576004355f52600760205260c060405f2061052d815491600181015490600281015460038201549060ff600560048501549401541693604051968752602087015260408601526060850152608084015260a08301906113a7565bf35b346104bf5760403660031901126104bf576105486113ca565b6004355f52600860205260405f209060018060a01b03165f5260205260a060405f20805490600181015490600281015460ff60046003840154930154169260405194855260208501526040840152606083015215156080820152f35b346104bf575f3660031901126104bf576002545f5260076020526020600260405f200154604051908152f35b346104bf5760203660031901126104bf576004355f526009602052602060405f2054604051908152f35b346104bf575f3660031901126104bf5760206106246002545f526007602052600360405f20015490565b604051908152f35b346104bf575f3660031901126104bf576001546001600160a01b03163303610a11576106696002545f52600760205260ff600560405f2001541690565b6106816002545f526007602052600160405f20015490565b9061069a6002545f526007602052600360405f20015490565b60025492835f52600960205260405f2054600384101561047057831591826109f8575b50816109ee575b501561088357505050600254805f52600760205260ff600560405f200154166003811015610470576106f690156114ff565b5f526007602052600560405f2001600160ff198254161790556002545f52600760205242600460405f2001556002547f1baa8618187c16370c93561b721a291ed3182b22390099d67e81167f97fbdd3a6020604051428152a25f546040516341025b3d60e11b81526001600160a01b0390911690602081600481855afa90811561082f575f9161083a575b506001600160801b0360046020926040519485938492637b43155d60e01b845216905af190811561082f575f916107eb575b5060207ffa799b9e877ad8ba8cfe8ce336553b81d71baa1d2a9a1b1cfbddf3e27a9f71f69167ffffffffffffffff60405191168152a1005b90506020813d602011610827575b81610806602093836114bd565b810103126104bf575167ffffffffffffffff811681036104bf5760206107b3565b3d91506107f9565b6040513d5f823e3d90fd5b90506020813d60201161087b575b81610855602093836114bd565b810103126104bf57516001600160801b03811681036104bf576001600160801b03610781565b3d9150610848565b82158091811593846109c4575b505061089857005b9061099f575b1561095a576108ac9061153c565b8060025560056040516108be816114a1565b82815260208101428152604082015f815260608301905f825260808401925f845260a08501965f88525f52600760205260405f209451855551600185015551600284015551600383015551600482015501905160038110156104705760ff801983541691161790557f278844837bcf8364a705384bf3a2812901f54155bae86dea81dd52aa5b9ec0e360406002548151908152426020820152a1005b60405162461bcd60e51b815260206004820152601b60248201527f50726576696f757320726f756e64206e6f74207265736f6c76656400000000006044820152606490fd5b50805f52600760205260ff600560405f2001541660038110156104705760021461089e565b6002149150816109d7575b508480610890565b6109e59150600554906114f2565b421015846109cf565b90501515846106c4565b610a07919250600454906114f2565b42101590856106bd565b60405162461bcd60e51b815260206004820152602d60248201527f4f6e6c7920616e2075706b65657020697320616c6c6f77656420746f2063616c60448201526c1b081d1a1a5cc81b595d1a1bd9609a1b6064820152608490fd5b346104bf575f3660031901126104bf576020600554604051908152f35b346104bf575f3660031901126104bf576020600254604051908152f35b346104bf575f3660031901126104bf5760206106246002545f526007602052600160405f20015490565b346104bf575f3660031901126104bf576020600354604051908152f35b346104bf5760203660031901126104bf57600435610b0961154a565b805f52600760205260ff600560405f20015416600381101561047057600203610d0257805f52600860205260405f2060018060a01b0333165f52602052600260405f200154815f526007602052600260405f2001541115610ccd575f81815260086020908152604080832033845290915290206001810154600290910154610b96916064909104906114df565b612710610ba5600654836114df565b04610bb2816003546114f2565b6003558103818111610cb9575f8381526008602090815260408083203380855292528220600401805460ff1916600117905590918291829182915af13d15610cb4573d67ffffffffffffffff8111610ca05760405190610c1c601f8201601f1916602001836114bd565b81525f60203d92013e5b15610c6a576040519081527f7472e24de4628e34b41a2aa1688ed4b46a9145b2de1cf93d74902473ccc1740d60203392a360015f5160206115fe5f395f51905f5255005b60405162461bcd60e51b815260206004820152600e60248201526d5061796f7574206661696c65642160901b6044820152606490fd5b634e487b7160e01b5f52604160045260245ffd5b610c26565b634e487b7160e01b5f52601160045260245ffd5b60405162461bcd60e51b815260206004820152600d60248201526c4e6f7420636c61696d61626c6560981b6044820152606490fd5b60405162461bcd60e51b815260206004820152602160248201527f43757272656e7420526f756e64206973206e6f74207265736f6c7665642079656044820152601d60fa1b6064820152608490fd5b346104bf575f3660031901126104bf576002545f5260076020526020600460405f200154604051908152f35b346104bf5760203660031901126104bf577f33dee9eeb309e2ae2bf3b98b02c20c029347f840d48b1758dcbb40c66fbb33ca6040610db96113b4565b610ded337f00000000000000000000000000000000000000000000000000000000000000006001600160a01b0316146113e0565b600180546001600160a01b039283166001600160a01b0319821681179092558351921682526020820152a1005b346104bf575f3660031901126104bf575f60a0604051610e39816114a1565b82815282602082015282604082015282606082015282608082015201526002545f198101908111610cb9575f52600760205260405f20604051610e7b816114a1565b81548152600182015491602082019283526002810154604083019081526003820154916060840192835260ff6005600483015492608087019384520154169260a085019260038510156104705760c09661052d958552604051965187525160208701525160408601525160608501525160808401525160a08301906113a7565b346104bf5760603660031901126104bf5760043567ffffffffffffffff8116036104bf57610f276113ca565b505f546001600160a01b0316801561108757330361103657600254805f52600760205260ff600560405f20015416600381101561047057600103610fe557610f70604435611582565b905f52600760205280600260405f2001556002545f52600760205242600360405f2001556002545f526007602052600560405f2001600260ff198254161790557f6bacf275ea881f208dd7f7d17331ee0b27f8f9775aefdc0166426108594efdb76040600254928151904282526020820152a2005b60405162461bcd60e51b8152602060048201526024808201527f526f756e64206e6f74206c6f636b6564206f7220616c7265616479207265736f6044820152631b1d995960e21b6064820152608490fd5b60405162461bcd60e51b815260206004820152602360248201527f4f6e6c7920456e74726f70792063616e2063616c6c20746869732066756e637460448201526234b7b760e91b6064820152608490fd5b60405162461bcd60e51b815260206004820152601760248201527f456e74726f70792061646472657373206e6f74207365740000000000000000006044820152606490fd5b346104bf5760203660031901126104bf576110e56113b4565b5f60806040516110f481611485565b8281528260208201528260408201528260608201520152600254805f52600860205260405f2060018060a01b0383165f52602052600160405f200154156111be575f52600860205260405f209060018060a01b03165f5260205260a060405f2060405161116081611485565b81549182825260018101546020830190815260028201549060408401918252608060ff600460038601549560608801968752015416940193151584526040519485525160208501525160408401525160608301525115156080820152f35b60405162461bcd60e51b815260206004820152602c60248201527f54686973207573657220686173206e6f7420706c61636564206120626574206f60448201526b1b881d1a1a5cc81c9bdd5b9960a21b6064820152608490fd5b346104bf575f3660031901126104bf576020600654604051908152f35b346104bf575f3660031901126104bf575f8080807f00000000000000000000000000000000000000000000000000000000000000006001600160a01b031661127e3382146113e0565b60035490811561128e8115611442565b839061129d575bf11561082f57005b506108fc611295565b346104bf575f3660031901126104bf576020600454604051908152f35b346104bf575f3660031901126104bf575f8080807f00000000000000000000000000000000000000000000000000000000000000006001600160a01b031661130c3382146113e0565b4790811561128e8115611442565b346104bf575f3660031901126104bf5760206113476002545f52600760205260ff600560405f2001541690565b61052d60405180926113a7565b346104bf5760403660031901126104bf57611399337f00000000000000000000000000000000000000000000000000000000000000006001600160a01b0316146113e0565b600480359055602435600555005b9060038210156104705752565b600435906001600160a01b03821682036104bf57565b602435906001600160a01b03821682036104bf57565b156113e757565b60405162461bcd60e51b815260206004820152602d60248201527f4f6e6c7920746865206f776e657220697320616c6c6f77656420746f2063616c60448201526c1b081d1a1a5cc81b595d1a1bd9609a1b6064820152608490fd5b1561144957565b60405162461bcd60e51b81526020600482015260146024820152734e6f2066756e647320746f20776974686472617760601b6044820152606490fd5b60a0810190811067ffffffffffffffff821117610ca057604052565b60c0810190811067ffffffffffffffff821117610ca057604052565b90601f8019910116810190811067ffffffffffffffff821117610ca057604052565b81810292918115918404141715610cb957565b91908201809211610cb957565b1561150657565b60405162461bcd60e51b815260206004820152600e60248201526d2937bab732103737ba1037b832b760911b6044820152606490fd5b5f198114610cb95760010190565b60025f5160206115fe5f395f51905f5254146115735760025f5160206115fe5f395f51905f5255565b633ee5aeb560e01b5f5260045ffd5b60218106156115f757660fffffffffffff1680601960361b0390601960361b8211610cb95780600160341b0390600160341b8211610cb9576064830292830460641481601960361b141715610cb957600160341b146115e357606491040490565b634e487b7160e01b5f52601260045260245ffd5b5060649056fe9b779b17422d0df92223018b32b4d1fa46e071723d6817e2486d003becc55f00a264697066735822122090d5ea8cfc22658070a82816bc7022f768565fce34a2cdf73472daf09fa96c9d64736f6c634300081c0033","linkReferences":{}},"methodIdentifiers":{"_entropyCallback(uint64,address,bytes32)":"52a5f1f8","checkUpkeep()":"a13abdad","claimWinnings(uint256)":"677bd9ff","getCrashMultiplier()":"d0eca69d","getCurrentRoundCrashTime()":"ae6e40c3","getCurrentRoundLockTime()":"5b31ed04","getCurrentRoundStartTime()":"7479aa04","getCurrentRoundState()":"38a50817","getCurrentUserBet(address)":"4d2081b9","getLastRoundResult()":"56835ba5","placeBet(uint256,uint256,uint256)":"e71c9697","s_betCount(uint256)":"b6e871fa","s_betDuration()":"4737df48","s_bets(uint256,address)":"d8b34c9a","s_cooldown()":"794bc3ee","s_currentRoundId()":"76a5af19","s_feeBasisPoints()":"4b146a6a","s_feesCollected()":"6c791bbd","s_rounds(uint256)":"e4b92d3a","setOrUpdateUpkeepAddress(address)":"58783725","updateTimings(uint256,uint256)":"24505f02","withdraw()":"3ccfd60b","withdrawFees()":"476343ee"},"id":25}