{"abi":[{"type":"constructor","inputs":[{"name":"_owner","type":"address","internalType":"address"},{"name":"_entropy","type":"address","internalType":"address"}],"stateMutability":"nonpayable"},{"type":"function","name":"_entropyCallback","inputs":[{"name":"sequence","type":"uint64","internalType":"uint64"},{"name":"provider","type":"address","internalType":"address"},{"name":"randomNumber","type":"bytes32","internalType":"bytes32"}],"outputs":[],"stateMutability":"nonpayable"},{"type":"function","name":"claimWinnings","inputs":[],"outputs":[],"stateMutability":"nonpayable"},{"type":"function","name":"getCrashMultiplier","inputs":[],"outputs":[{"name":"","type":"uint256","internalType":"uint256"}],"stateMutability":"view"},{"type":"function","name":"getCurrentRoundState","inputs":[],"outputs":[{"name":"","type":"uint8","internalType":"enum CrashGame.RoundState"}],"stateMutability":"view"},{"type":"function","name":"getCurrentUserBet","inputs":[{"name":"_user","type":"address","internalType":"address"}],"outputs":[{"name":"","type":"tuple","internalType":"struct CrashGame.Bet","components":[{"name":"roundId","type":"uint256","internalType":"uint256"},{"name":"amount","type":"uint256","internalType":"uint256"},{"name":"targetMultiplier","type":"uint256","internalType":"uint256"},{"name":"autoCashout","type":"uint256","internalType":"uint256"},{"name":"claimed","type":"bool","internalType":"bool"}]}],"stateMutability":"view"},{"type":"function","name":"getLastRoundResult","inputs":[],"outputs":[{"name":"","type":"tuple","internalType":"struct CrashGame.Round","components":[{"name":"id","type":"uint256","internalType":"uint256"},{"name":"startTime","type":"uint256","internalType":"uint256"},{"name":"crashMultiplier","type":"uint256","internalType":"uint256"},{"name":"state","type":"uint8","internalType":"enum CrashGame.RoundState"}]}],"stateMutability":"view"},{"type":"function","name":"lockRoundAndCallPyth","inputs":[],"outputs":[],"stateMutability":"nonpayable"},{"type":"function","name":"placeBet","inputs":[{"name":"amount","type":"uint256","internalType":"uint256"},{"name":"targetMultiplier","type":"uint256","internalType":"uint256"},{"name":"autoCashout","type":"uint256","internalType":"uint256"}],"outputs":[],"stateMutability":"payable"},{"type":"function","name":"s_bets","inputs":[{"name":"roundId","type":"uint256","internalType":"uint256"},{"name":"player","type":"address","internalType":"address"}],"outputs":[{"name":"roundId","type":"uint256","internalType":"uint256"},{"name":"amount","type":"uint256","internalType":"uint256"},{"name":"targetMultiplier","type":"uint256","internalType":"uint256"},{"name":"autoCashout","type":"uint256","internalType":"uint256"},{"name":"claimed","type":"bool","internalType":"bool"}],"stateMutability":"view"},{"type":"function","name":"s_currentRoundId","inputs":[],"outputs":[{"name":"","type":"uint256","internalType":"uint256"}],"stateMutability":"view"},{"type":"function","name":"s_lockRoundUpkeep","inputs":[],"outputs":[{"name":"","type":"address","internalType":"address"}],"stateMutability":"view"},{"type":"function","name":"s_rounds","inputs":[{"name":"","type":"uint256","internalType":"uint256"}],"outputs":[{"name":"id","type":"uint256","internalType":"uint256"},{"name":"startTime","type":"uint256","internalType":"uint256"},{"name":"crashMultiplier","type":"uint256","internalType":"uint256"},{"name":"state","type":"uint8","internalType":"enum CrashGame.RoundState"}],"stateMutability":"view"},{"type":"function","name":"s_startRoundUpKeep","inputs":[],"outputs":[{"name":"","type":"address","internalType":"address"}],"stateMutability":"view"},{"type":"function","name":"setOrUpdateLockUpkeepAddress","inputs":[{"name":"_newUpKeep","type":"address","internalType":"address"}],"outputs":[],"stateMutability":"nonpayable"},{"type":"function","name":"setOrUpdateStartUpkeepAddress","inputs":[{"name":"_newUpKeep","type":"address","internalType":"address"}],"outputs":[],"stateMutability":"nonpayable"},{"type":"function","name":"startRound","inputs":[],"outputs":[],"stateMutability":"nonpayable"},{"type":"function","name":"withdraw","inputs":[],"outputs":[],"stateMutability":"nonpayable"},{"type":"event","name":"BetPlaced","inputs":[{"name":"roundId","type":"uint256","indexed":false,"internalType":"uint256"},{"name":"player","type":"address","indexed":false,"internalType":"address"},{"name":"amount","type":"uint256","indexed":false,"internalType":"uint256"},{"name":"targetMultiplier","type":"uint256","indexed":false,"internalType":"uint256"},{"name":"autoCashout","type":"uint256","indexed":false,"internalType":"uint256"}],"anonymous":false},{"type":"event","name":"FlipRequested","inputs":[{"name":"sequenceNumber","type":"uint64","indexed":false,"internalType":"uint64"}],"anonymous":false},{"type":"event","name":"FlipResult","inputs":[{"name":"sequenceNumber","type":"uint64","indexed":false,"internalType":"uint64"},{"name":"isHeads","type":"bool","indexed":false,"internalType":"bool"}],"anonymous":false},{"type":"event","name":"RoundCrashed","inputs":[{"name":"roundId","type":"uint256","indexed":true,"internalType":"uint256"},{"name":"crashTimeStamp","type":"uint256","indexed":false,"internalType":"uint256"},{"name":"crashMultiplier","type":"uint256","indexed":false,"internalType":"uint256"}],"anonymous":false},{"type":"event","name":"RoundLocked","inputs":[{"name":"roundId","type":"uint256","indexed":true,"internalType":"uint256"},{"name":"lockTime","type":"uint256","indexed":false,"internalType":"uint256"}],"anonymous":false},{"type":"event","name":"RoundStarted","inputs":[{"name":"roundId","type":"uint256","indexed":false,"internalType":"uint256"},{"name":"startTime","type":"uint256","indexed":false,"internalType":"uint256"}],"anonymous":false},{"type":"event","name":"UpkeepUpdated","inputs":[{"name":"oldUpkeep","type":"address","indexed":false,"internalType":"address"},{"name":"newUpkeep","type":"address","indexed":false,"internalType":"address"}],"anonymous":false},{"type":"event","name":"WinningsClaimed","inputs":[{"name":"user","type":"address","indexed":true,"internalType":"address"},{"name":"roundId","type":"uint256","indexed":true,"internalType":"uint256"},{"name":"payoutAmount","type":"uint256","indexed":false,"internalType":"uint256"}],"anonymous":false},{"type":"error","name":"ReentrancyGuardReentrantCall","inputs":[]}],"bytecode":{"object":"0x60a0346100c057601f61147438819003918201601f19168301916001600160401b038311848410176100c45780849260409485528339810103126100c057610052602061004b836100d8565b92016100d8565b60017f9b779b17422d0df92223018b32b4d1fa46e071723d6817e2486d003becc55f00556080919091525f80546001600160a01b0319166001600160a01b0390921691909117905560405161138790816100ed8239608051818181610eee01528181610f6901526110630152f35b5f80fd5b634e487b7160e01b5f52604160045260245ffd5b51906001600160a01b03821682036100c05756fe60806040526004361015610011575f80fd5b5f3560e01c806302c61eea1461102357806338a5081714610fef5780633ccfd60b14610f575780634340767114610eae5780634d2081b914610d6257806352a5f1f814610c1957806355e3f08614610abe57806356835ba514610a0e5780636233e6e0146108615780636b5533401461083957806376a5af191461081c578063971aecec146107f4578063b401faf1146105be578063d0eca69d14610592578063d8b34c9a1461051d578063e4b92d3a146104c65763e71c9697146100d4575f80fd5b60603660031901126104c2576024356044356004356100f161127e565b5f546040516341025b3d60e11b815290602090829060049082906001600160a01b03165afa80156104b7576001600160801b03915f91610488575b501681018082116104745734106104395760035491825f52600460205260ff600360405f200154166003811015610425576101679015611222565b5f8381526005602090815260408083203384529091529020600101546103d5578115610386576064841061033057818111156102d6575f838152600560209081526040808320338452909152902060010154610287577fab2115bac1de808eb7fe2be0309085b11f1f42b1eb980de8352efefdbfc098e29360a09360046040516101f081611166565b8281526020810186815260408201858152606083019187835260808401955f87525f52600560205260405f206001808c1b0333165f5260205260405f2093518455516001840155516002830155516003820155019051151560ff8019835416911617905560035492604051938452336020850152604084015260608301526080820152a160015f5160206113325f395f51905f5255005b60405162461bcd60e51b815260206004820152602160248201527f42657420616c726561647920706c6163656420666f72207468697320726f756e6044820152601960fa1b6064820152608490fd5b60405162461bcd60e51b815260206004820152602c60248201527f4175746f20636173686f7574206d75737420626520677265617465722074686160448201526b1b8818995d08185b5bdd5b9d60a21b6064820152608490fd5b60405162461bcd60e51b815260206004820152602860248201527f546172676574206d756c7469706c696572206d757374206265206174206c65616044820152670e6e840625c6060f60c31b6064820152608490fd5b60405162461bcd60e51b815260206004820152602160248201527f42657420616d6f756e74206d7573742062652067726561746572207468616e206044820152600360fc1b6064820152608490fd5b60405162461bcd60e51b815260206004820152602260248201527f616c726561647920706c61636564206120626574206f6e207468697320726f756044820152611b9960f21b6064820152608490fd5b634e487b7160e01b5f52602160045260245ffd5b60405162461bcd60e51b8152602060048201526013602482015272139bdd08195b9bdd59da08115512081cd95b9d606a1b6044820152606490fd5b634e487b7160e01b5f52601160045260245ffd5b6104aa915060203d6020116104b0575b6104a2818361119e565b81019061125f565b5f61012c565b503d610498565b6040513d5f823e3d90fd5b5f80fd5b346104c25760203660031901126104c2576004355f526004602052608060405f2061051b81549160018101549060ff6003600283015492015416916040519485526020850152604084015260608301906110f7565bf35b346104c25760403660031901126104c2576105366110e1565b6004355f52600560205260405f209060018060a01b03165f5260205260a060405f20805490600181015490600281015460ff60046003840154930154169260405194855260208501526040840152606083015215156080820152f35b346104c2575f3660031901126104c2576003545f5260046020526020600260405f200154604051908152f35b346104c2575f3660031901126104c2576105d661127e565b600354805f52600460205260ff600360405f200154166003811015610425576002036107a557805f52600560205260405f2060018060a01b0333165f52602052600260405f200154815f526004602052600260405f2001541115610770575f8181526005602090815260408083203384529091529020600181015460029091015460649004808202929180840490911490151715610474575f52600560205260405f2060018060a01b0333165f52602052600460405f2001600160ff198254161790555f80808084335af13d1561076b573d67ffffffffffffffff811161075757604051906106cf601f8201601f19166020018361119e565b81525f60203d92013e5b1561072157600354906040519081527f7472e24de4628e34b41a2aa1688ed4b46a9145b2de1cf93d74902473ccc1740d60203392a360015f5160206113325f395f51905f5255005b60405162461bcd60e51b815260206004820152600e60248201526d5061796f7574206661696c65642160901b6044820152606490fd5b634e487b7160e01b5f52604160045260245ffd5b6106d9565b60405162461bcd60e51b815260206004820152600d60248201526c4e6f7420636c61696d61626c6560981b6044820152606490fd5b60405162461bcd60e51b815260206004820152602160248201527f43757272656e7420526f756e64206973206e6f74207265736f6c7665642079656044820152601d60fa1b6064820152608490fd5b346104c2575f3660031901126104c2576002546040516001600160a01b039091168152602090f35b346104c2575f3660031901126104c2576020600354604051908152f35b346104c2575f3660031901126104c2576001546040516001600160a01b039091168152602090f35b346104c2575f3660031901126104c2576001546001600160a01b0316331480156109fa575b61088f906111c0565b600354805f52600460205260ff600360405f200154166003811015610425576108b89015611222565b5f526004602052600360405f2001600160ff198254161790556003547f1baa8618187c16370c93561b721a291ed3182b22390099d67e81167f97fbdd3a6020604051428152a25f546040516341025b3d60e11b81526001600160a01b0390911690602081600481855afa80156104b75760046001600160801b03916020935f916109dd575b50604051637b43155d60e01b8152948593849216905af19081156104b7575f91610999575b7ffa799b9e877ad8ba8cfe8ce336553b81d71baa1d2a9a1b1cfbddf3e27a9f71f660208367ffffffffffffffff60405191168152a1005b90506020813d6020116109d5575b816109b46020938361119e565b810103126104c2575167ffffffffffffffff811681036104c2576020610962565b3d91506109a7565b6109f49150843d86116104b0576104a2818361119e565b8561093d565b506002546001600160a01b03163314610886565b346104c2575f3660031901126104c2575f6060604051610a2d81611182565b82815282602082015282604082015201526003545f198101908111610474575f52600460205260405f20604051610a6381611182565b815481526001820154916020820192835260ff60036002830154926040850193845201541690606083019060038310156104255760809461051b938352604051945185525160208501525160408401525160608301906110f7565b346104c2575f3660031901126104c2576001546001600160a01b031633148015610c05575b610aec906111c0565b60035480158015610be0575b15610b9b575f19811461047457600101806003556003604051610b1a81611182565b8281526020810142815260408201905f825260608301945f86525f52600460205260405f209251835551600183015551600282015501905160038110156104255760ff801983541691161790557f278844837bcf8364a705384bf3a2812901f54155bae86dea81dd52aa5b9ec0e360406003548151908152426020820152a1005b60405162461bcd60e51b815260206004820152601b60248201527f50726576696f757320726f756e64206e6f74207265736f6c76656400000000006044820152606490fd5b50805f52600460205260ff600360405f20015416600381101561042557600214610af8565b506002546001600160a01b03163314610ae3565b346104c25760603660031901126104c25760043567ffffffffffffffff8116036104c257610c456110e1565b505f546001600160a01b03168015610d1d573303610ccc57610c686044356112b6565b6003545f52600460205280600260405f2001556003545f526004602052600360405f2001600260ff198254161790557f6bacf275ea881f208dd7f7d17331ee0b27f8f9775aefdc0166426108594efdb76040600354928151904282526020820152a2005b60405162461bcd60e51b815260206004820152602360248201527f4f6e6c7920456e74726f70792063616e2063616c6c20746869732066756e637460448201526234b7b760e91b6064820152608490fd5b60405162461bcd60e51b815260206004820152601760248201527f456e74726f70792061646472657373206e6f74207365740000000000000000006044820152606490fd5b346104c25760203660031901126104c257610d7b6110cb565b5f6080604051610d8a81611166565b8281528260208201528260408201528260608201520152600354805f52600560205260405f2060018060a01b0383165f52602052600160405f20015415610e54575f52600560205260405f209060018060a01b03165f5260205260a060405f20604051610df681611166565b81549182825260018101546020830190815260028201549060408401918252608060ff600460038601549560608801968752015416940193151584526040519485525160208501525160408401525160608301525115156080820152f35b60405162461bcd60e51b815260206004820152602c60248201527f54686973207573657220686173206e6f7420706c61636564206120626574206f60448201526b1b881d1a1a5cc81c9bdd5b9960a21b6064820152608490fd5b346104c25760203660031901126104c2577f33dee9eeb309e2ae2bf3b98b02c20c029347f840d48b1758dcbb40c66fbb33ca610ee86110cb565b610f1c337f00000000000000000000000000000000000000000000000000000000000000006001600160a01b031614611104565b600280546001600160a01b039283166001600160a01b031982168117909255604080519390911683526020830191909152819081015b0390a1005b346104c2575f3660031901126104c2577f00000000000000000000000000000000000000000000000000000000000000006001600160a01b0316610f9c338214611104565b47908115610fb3575f808093819382f1156104b757005b60405162461bcd60e51b81526020600482015260146024820152734e6f2066756e647320746f20776974686472617760601b6044820152606490fd5b346104c2575f3660031901126104c2576003545f526004602052602060ff600360405f2001541661051b60405180926110f7565b346104c25760203660031901126104c2577f33dee9eeb309e2ae2bf3b98b02c20c029347f840d48b1758dcbb40c66fbb33ca61105d6110cb565b611091337f00000000000000000000000000000000000000000000000000000000000000006001600160a01b031614611104565b600180546001600160a01b039283166001600160a01b03198216811790925560408051939091168352602083019190915281908101610f52565b600435906001600160a01b03821682036104c257565b602435906001600160a01b03821682036104c257565b9060038210156104255752565b1561110b57565b60405162461bcd60e51b815260206004820152602d60248201527f4f6e6c7920746865206f776e657220697320616c6c6f77656420746f2063616c60448201526c1b081d1a1a5cc81b595d1a1bd9609a1b6064820152608490fd5b60a0810190811067ffffffffffffffff82111761075757604052565b6080810190811067ffffffffffffffff82111761075757604052565b90601f8019910116810190811067ffffffffffffffff82111761075757604052565b156111c757565b60405162461bcd60e51b815260206004820152602d60248201527f4f6e6c7920616e2075706b65657020697320616c6c6f77656420746f2063616c60448201526c1b081d1a1a5cc81b595d1a1bd9609a1b6064820152608490fd5b1561122957565b60405162461bcd60e51b815260206004820152600e60248201526d2937bab732103737ba1037b832b760911b6044820152606490fd5b908160209103126104c257516001600160801b03811681036104c25790565b60025f5160206113325f395f51905f5254146112a75760025f5160206113325f395f51905f5255565b633ee5aeb560e01b5f5260045ffd5b602181061561132b57660fffffffffffff1680601960361b0390601960361b82116104745780600160341b0390600160341b8211610474576064830292830460641481601960361b14171561047457600160341b1461131757606491040490565b634e487b7160e01b5f52601260045260245ffd5b5060649056fe9b779b17422d0df92223018b32b4d1fa46e071723d6817e2486d003becc55f00a264697066735822122080d627e4a9ce9dfde538c99c3e4010c6f886280476d92dca57526c48d6dbacd664736f6c634300081c0033","linkReferences":{}},"methodIdentifiers":{"_entropyCallback(uint64,address,bytes32)":"52a5f1f8","claimWinnings()":"b401faf1","getCrashMultiplier()":"d0eca69d","getCurrentRoundState()":"38a50817","getCurrentUserBet(address)":"4d2081b9","getLastRoundResult()":"56835ba5","lockRoundAndCallPyth()":"6233e6e0","placeBet(uint256,uint256,uint256)":"e71c9697","s_bets(uint256,address)":"d8b34c9a","s_currentRoundId()":"76a5af19","s_lockRoundUpkeep()":"971aecec","s_rounds(uint256)":"e4b92d3a","s_startRoundUpKeep()":"6b553340","setOrUpdateLockUpkeepAddress(address)":"43407671","setOrUpdateStartUpkeepAddress(address)":"02c61eea","startRound()":"55e3f086","withdraw()":"3ccfd60b"},"id":25}